:1000000000308A0059280000FF00030E8301A10080
:100010000A08A0008A010408A2007708A300780853
:10002000A4007908A5007A08A600831383128B1D0B
:100030001B280B182C28220884002308F70024080A
:10004000F8002508F9002608FA0020088A00210E89
:100050008300FF0E7F0E09008A110A122F28AE01BD
:10006000061AAE0AAE08031946280A30A707FA0195
:10007000270DA8007A0DA900A80DA90DA80DA90D9E
:10008000A80DA90DA80DA90DE030A8050B108A1127
:100090000A121B280330AD02031C58282D3084009F
:1000A000831300080319582856285628800B552812
:1000B000080003081F398300A7010330A900E830B6
:1000C000A80083161F149F141F159F1107309C0052
:1000D00083138312AA01AB018B15C0308B042A084D
:1000E000AB00AA010818AA0A2B082A0203199028B3
:1000F0002908AC00AC0AAC0303198228FF30AD001C
:100100004A207B282808AD004A20831688108312D5
:100110008814C830AD004A208316881083128810D6
:040120006F286300E1
:02400E00323F3F
:00000001FF
;PIC16F877A
;CRC=8E07  CREATED="01-nov-17 10:32"
